{
    "_format": "hh-sol-artifact-1",
    "contractName": "EthGPT",
    "sourceName": "contracts/EthGPT.sol",
    "abi": [
        {
            "inputs": [
                {
                    "internalType": "address",
                    "name": "_oracle",
                    "type": "address"
                }
            ],
            "stateMutability": "nonpayable",
            "type": "constructor"
        },
        {
            "inputs": [
                {
                    "internalType": "address",
                    "name": "owner",
                    "type": "address"
                }
            ],
            "name": "OwnableInvalidOwner",
            "type": "error"
        },
        {
            "inputs": [
                {
                    "internalType": "address",
                    "name": "account",
                    "type": "address"
                }
            ],
            "name": "OwnableUnauthorizedAccount",
            "type": "error"
        },
        {
            "anonymous": false,
            "inputs": [
                {
                    "indexed": true,
                    "internalType": "uint256",
                    "name": "id",
                    "type": "uint256"
                },
                {
                    "indexed": false,
                    "internalType": "address",
                    "name": "requester",
                    "type": "address"
                }
            ],
            "name": "AICancelled",
            "type": "event"
        },
        {
            "anonymous": false,
            "inputs": [
                {
                    "indexed": true,
                    "internalType": "uint256",
                    "name": "id",
                    "type": "uint256"
                },
                {
                    "indexed": false,
                    "internalType": "string",
                    "name": "response",
                    "type": "string"
                },
                {
                    "indexed": true,
                    "internalType": "address",
                    "name": "oracle",
                    "type": "address"
                }
            ],
            "name": "AIFulfilled",
            "type": "event"
        },
        {
            "anonymous": false,
            "inputs": [
                {
                    "indexed": true,
                    "internalType": "uint256",
                    "name": "id",
                    "type": "uint256"
                },
                {
                    "indexed": true,
                    "internalType": "address",
                    "name": "requester",
                    "type": "address"
                },
                {
                    "indexed": false,
                    "internalType": "string",
                    "name": "prompt",
                    "type": "string"
                }
            ],
            "name": "AIRequested",
            "type": "event"
        },
        {
            "anonymous": false,
            "inputs": [
                {
                    "indexed": true,
                    "internalType": "address",
                    "name": "previousOwner",
                    "type": "address"
                },
                {
                    "indexed": true,
                    "internalType": "address",
                    "name": "newOwner",
                    "type": "address"
                }
            ],
            "name": "OwnershipTransferred",
            "type": "event"
        },
        {
            "inputs": [
                {
                    "internalType": "uint256",
                    "name": "id",
                    "type": "uint256"
                }
            ],
            "name": "cancel",
            "outputs": [],
            "stateMutability": "nonpayable",
            "type": "function"
        },
        {
            "inputs": [],
            "name": "flatFeeWei",
            "outputs": [
                {
                    "internalType": "uint256",
                    "name": "",
                    "type": "uint256"
                }
            ],
            "stateMutability": "view",
            "type": "function"
        },
        {
            "inputs": [
                {
                    "internalType": "uint256",
                    "name": "id",
                    "type": "uint256"
                },
                {
                    "internalType": "string",
                    "name": "response",
                    "type": "string"
                }
            ],
            "name": "fulfill",
            "outputs": [],
            "stateMutability": "nonpayable",
            "type": "function"
        },
        {
            "inputs": [
                {
                    "internalType": "uint256",
                    "name": "id",
                    "type": "uint256"
                }
            ],
            "name": "getRequest",
            "outputs": [
                {
                    "components": [
                        {
                            "internalType": "address",
                            "name": "requester",
                            "type": "address"
                        },
                        {
                            "internalType": "string",
                            "name": "prompt",
                            "type": "string"
                        },
                        {
                            "internalType": "string",
                            "name": "response",
                            "type": "string"
                        },
                        {
                            "internalType": "enum EthGPT.Status",
                            "name": "status",
                            "type": "uint8"
                        },
                        {
                            "internalType": "uint256",
                            "name": "feePaid",
                            "type": "uint256"
                        },
                        {
                            "internalType": "uint256",
                            "name": "createdAt",
                            "type": "uint256"
                        },
                        {
                            "internalType": "uint256",
                            "name": "fulfilledAt",
                            "type": "uint256"
                        }
                    ],
                    "internalType": "struct EthGPT.Request",
                    "name": "",
                    "type": "tuple"
                }
            ],
            "stateMutability": "view",
            "type": "function"
        },
        {
            "inputs": [],
            "name": "nextId",
            "outputs": [
                {
                    "internalType": "uint256",
                    "name": "",
                    "type": "uint256"
                }
            ],
            "stateMutability": "view",
            "type": "function"
        },
        {
            "inputs": [],
            "name": "oracle",
            "outputs": [
                {
                    "internalType": "address",
                    "name": "",
                    "type": "address"
                }
            ],
            "stateMutability": "view",
            "type": "function"
        },
        {
            "inputs": [],
            "name": "owner",
            "outputs": [
                {
                    "internalType": "address",
                    "name": "",
                    "type": "address"
                }
            ],
            "stateMutability": "view",
            "type": "function"
        },
        {
            "inputs": [],
            "name": "renounceOwnership",
            "outputs": [],
            "stateMutability": "nonpayable",
            "type": "function"
        },
        {
            "inputs": [
                {
                    "internalType": "string",
                    "name": "prompt",
                    "type": "string"
                }
            ],
            "name": "requestAI",
            "outputs": [
                {
                    "internalType": "uint256",
                    "name": "id",
                    "type": "uint256"
                }
            ],
            "stateMutability": "payable",
            "type": "function"
        },
        {
            "inputs": [
                {
                    "internalType": "uint256",
                    "name": "",
                    "type": "uint256"
                }
            ],
            "name": "requests",
            "outputs": [
                {
                    "internalType": "address",
                    "name": "requester",
                    "type": "address"
                },
                {
                    "internalType": "string",
                    "name": "prompt",
                    "type": "string"
                },
                {
                    "internalType": "string",
                    "name": "response",
                    "type": "string"
                },
                {
                    "internalType": "enum EthGPT.Status",
                    "name": "status",
                    "type": "uint8"
                },
                {
                    "internalType": "uint256",
                    "name": "feePaid",
                    "type": "uint256"
                },
                {
                    "internalType": "uint256",
                    "name": "createdAt",
                    "type": "uint256"
                },
                {
                    "internalType": "uint256",
                    "name": "fulfilledAt",
                    "type": "uint256"
                }
            ],
            "stateMutability": "view",
            "type": "function"
        },
        {
            "inputs": [
                {
                    "internalType": "uint256",
                    "name": "_fee",
                    "type": "uint256"
                }
            ],
            "name": "setFlatFeeWei",
            "outputs": [],
            "stateMutability": "nonpayable",
            "type": "function"
        },
        {
            "inputs": [
                {
                    "internalType": "address",
                    "name": "newOracle",
                    "type": "address"
                }
            ],
            "name": "setOracle",
            "outputs": [],
            "stateMutability": "nonpayable",
            "type": "function"
        },
        {
            "inputs": [
                {
                    "internalType": "address",
                    "name": "newOwner",
                    "type": "address"
                }
            ],
            "name": "transferOwnership",
            "outputs": [],
            "stateMutability": "nonpayable",
            "type": "function"
        },
        {
            "inputs": [
                {
                    "internalType": "address payable",
                    "name": "to",
                    "type": "address"
                }
            ],
            "name": "withdraw",
            "outputs": [],
            "stateMutability": "nonpayable",
            "type": "function"
        }
    ],
    "bytecode": "0x60806040526000600255600160035534801561001a57600080fd5b506040516121c33803806121c3833981810160405281019061003c919061029c565b33600073ffffffffffffffffffffffffffffffffffffffff168173ffffffffffffffffffffffffffffffffffffffff16036100af5760006040517f1e4fbdf70000000000000000000000000000000000000000000000000000000081526004016100a691906102d8565b60405180910390fd5b6100be8161017560201b60201c565b50600073ffffffffffffffffffffffffffffffffffffffff168173ffffffffffffffffffffffffffffffffffffffff160361012e576040517f08c379a000000000000000000000000000000000000000000000000000000000815260040161012590610350565b60405180910390fd5b80600460006101000a81548173ffffffffffffffffffffffffffffffffffffffff021916908373ffffffffffffffffffffffffffffffffffffffff16021790555050610370565b60008060009054906101000a900473ffffffffffffffffffffffffffffffffffffffff169050816000806101000a81548173ffffffffffffffffffffffffffffffffffffffff021916908373ffffffffffffffffffffffffffffffffffffffff1602179055508173ffffffffffffffffffffffffffffffffffffffff168173ffffffffffffffffffffffffffffffffffffffff167f8be0079c531659141344cd1fd0a4f28419497f9722a3daafe3b4186f6b6457e060405160405180910390a35050565b600080fd5b600073ffffffffffffffffffffffffffffffffffffffff82169050919050565b60006102698261023e565b9050919050565b6102798161025e565b811461028457600080fd5b50565b60008151905061029681610270565b92915050565b6000602082840312156102b2576102b1610239565b5b60006102c084828501610287565b91505092915050565b6102d28161025e565b82525050565b60006020820190506102ed60008301846102c9565b92915050565b600082825260208201905092915050565b7f494e56414c4944204f5241434c45000000000000000000000000000000000000600082015250565b600061033a600e836102f3565b915061034582610304565b602082019050919050565b600060208201905081810360008301526103698161032d565b9050919050565b611e448061037f6000396000f3fe6080604052600436106100dd5760003560e01c806381d12c581161007f578063b78e6f8c11610059578063b78e6f8c14610291578063c58343ef146102bc578063f2fde38b146102f9578063f89455e914610322576100dd565b806381d12c58146101fa5780638da5cb5b1461023d578063b2ce007914610268576100dd565b806361b8ce8c116100bb57806361b8ce8c14610164578063715018a61461018f5780637adbf973146101a65780637dc0d1d0146101cf576100dd565b806340e58ee5146100e257806351cff8d91461010b5780635c3bc39214610134575b600080fd5b3480156100ee57600080fd5b5061010960048036038101906101049190611112565b61034b565b005b34801561011757600080fd5b50610132600480360381019061012d919061119d565b6104d5565b005b61014e6004803603810190610149919061122f565b610596565b60405161015b919061128b565b60405180910390f35b34801561017057600080fd5b50610179610819565b604051610186919061128b565b60405180910390f35b34801561019b57600080fd5b506101a461081f565b005b3480156101b257600080fd5b506101cd60048036038101906101c891906112e4565b610833565b005b3480156101db57600080fd5b506101e46108ee565b6040516101f19190611320565b60405180910390f35b34801561020657600080fd5b50610221600480360381019061021c9190611112565b610914565b6040516102349796959493929190611442565b60405180910390f35b34801561024957600080fd5b50610252610a93565b60405161025f9190611320565b60405180910390f35b34801561027457600080fd5b5061028f600480360381019061028a91906114bf565b610abc565b005b34801561029d57600080fd5b506102a6610c7c565b6040516102b3919061128b565b60405180910390f35b3480156102c857600080fd5b506102e360048036038101906102de9190611112565b610c82565b6040516102f09190611639565b60405180910390f35b34801561030557600080fd5b50610320600480360381019061031b91906112e4565b610e82565b005b34801561032e57600080fd5b5061034960048036038101906103449190611112565b610f08565b005b600060016000838152602001908152602001600020905060016003811115610376576103756113cb565b5b8160030160009054906101000a900460ff16600381111561039a576103996113cb565b5b146103da576040517f08c379a00000000000000000000000000000000000000000000000000000000081526004016103d1906116a7565b60405180910390fd5b3373ffffffffffffffffffffffffffffffffffffffff168160000160009054906101000a900473ffffffffffffffffffffffffffffffffffffffff1673ffffffffffffffffffffffffffffffffffffffff161461046c576040517f08c379a000000000000000000000000000000000000000000000000000000000815260040161046390611713565b60405180910390fd5b60038160030160006101000a81548160ff02191690836003811115610494576104936113cb565b5b0217905550817f13e2e2010fe4f4f7e57a28043cb55944196d3ea9d01fad5b4b4ca5f222aa52c9336040516104c99190611320565b60405180910390a25050565b6104dd610f1a565b600073ffffffffffffffffffffffffffffffffffffffff168173ffffffffffffffffffffffffffffffffffffffff160361054c576040517f08c379a00000000000000000000000000000000000000000000000000000000081526004016105439061177f565b60405180910390fd5b8073ffffffffffffffffffffffffffffffffffffffff166108fc479081150290604051600060405180830381858888f19350505050158015610592573d6000803e3d6000fd5b5050565b60008083839050116105dd576040517f08c379a00000000000000000000000000000000000000000000000000000000081526004016105d4906117eb565b60405180910390fd5b600254341015610622576040517f08c379a000000000000000000000000000000000000000000000000000000000815260040161061990611857565b60405180910390fd5b60036000815480929190610635906118a6565b9190505590506040518060e001604052803373ffffffffffffffffffffffffffffffffffffffff16815260200184848080601f016020809104026020016040519081016040528093929190818152602001838380828437600081840152601f19601f820116905080830192505050505050508152602001604051806020016040528060008152508152602001600160038111156106d5576106d46113cb565b5b815260200134815260200142815260200160008152506001600083815260200190815260200160002060008201518160000160006101000a81548173ffffffffffffffffffffffffffffffffffffffff021916908373ffffffffffffffffffffffffffffffffffffffff160217905550602082015181600101908161075a9190611b29565b5060408201518160020190816107709190611b29565b5060608201518160030160006101000a81548160ff0219169083600381111561079c5761079b6113cb565b5b02179055506080820151816004015560a0820151816005015560c082015181600601559050503373ffffffffffffffffffffffffffffffffffffffff16817f4b96fb0fc6631355bb3588cd4d98828357d66c688c29b43b86d68b6096e86bb7858560405161080b929190611c37565b60405180910390a392915050565b60035481565b610827610f1a565b6108316000610fa1565b565b61083b610f1a565b600073ffffffffffffffffffffffffffffffffffffffff168173ffffffffffffffffffffffffffffffffffffffff16036108aa576040517f08c379a00000000000000000000000000000000000000000000000000000000081526004016108a190611ca7565b60405180910390fd5b80600460006101000a81548173ffffffffffffffffffffffffffffffffffffffff021916908373ffffffffffffffffffffffffffffffffffffffff16021790555050565b600460009054906101000a900473ffffffffffffffffffffffffffffffffffffffff1681565b60016020528060005260406000206000915090508060000160009054906101000a900473ffffffffffffffffffffffffffffffffffffffff169080600101805461095d9061194c565b80601f01602080910402602001604051908101604052809291908181526020018280546109899061194c565b80156109d65780601f106109ab576101008083540402835291602001916109d6565b820191906000526020600020905b8154815290600101906020018083116109b957829003601f168201915b5050505050908060020180546109eb9061194c565b80601f0160208091040260200160405190810160405280929190818152602001828054610a179061194c565b8015610a645780601f10610a3957610100808354040283529160200191610a64565b820191906000526020600020905b815481529060010190602001808311610a4757829003601f168201915b5050505050908060030160009054906101000a900460ff16908060040154908060050154908060060154905087565b60008060009054906101000a900473ffffffffffffffffffffffffffffffffffffffff16905090565b600460009054906101000a900473ffffffffffffffffffffffffffffffffffffffff1673ffffffffffffffffffffffffffffffffffffffff163373ffffffffffffffffffffffffffffffffffffffff1614610b4c576040517f08c379a0000000000000000000000000000000000000000000000000000000008152600401610b4390611d13565b60405180910390fd5b600060016000858152602001908152602001600020905060016003811115610b7757610b766113cb565b5b8160030160009054906101000a900460ff166003811115610b9b57610b9a6113cb565b5b14610bdb576040517f08c379a0000000000000000000000000000000000000000000000000000000008152600401610bd2906116a7565b60405180910390fd5b8282826002019182610bee929190611d3e565b5060028160030160006101000a81548160ff02191690836003811115610c1757610c166113cb565b5b02179055504281600601819055503373ffffffffffffffffffffffffffffffffffffffff16847f524dc4ba1593ee3eedc18d29a7d6e5037c478baaff321cffef5035f4d6badc068585604051610c6e929190611c37565b60405180910390a350505050565b60025481565b610c8a61106d565b600160008381526020019081526020016000206040518060e00160405290816000820160009054906101000a900473ffffffffffffffffffffffffffffffffffffffff1673ffffffffffffffffffffffffffffffffffffffff1673ffffffffffffffffffffffffffffffffffffffff168152602001600182018054610d0e9061194c565b80601f0160208091040260200160405190810160405280929190818152602001828054610d3a9061194c565b8015610d875780601f10610d5c57610100808354040283529160200191610d87565b820191906000526020600020905b815481529060010190602001808311610d6a57829003601f168201915b50505050508152602001600282018054610da09061194c565b80601f0160208091040260200160405190810160405280929190818152602001828054610dcc9061194c565b8015610e195780601f10610dee57610100808354040283529160200191610e19565b820191906000526020600020905b815481529060010190602001808311610dfc57829003601f168201915b505050505081526020016003820160009054906101000a900460ff166003811115610e4757610e466113cb565b5b6003811115610e5957610e586113cb565b5b815260200160048201548152602001600582015481526020016006820154815250509050919050565b610e8a610f1a565b600073ffffffffffffffffffffffffffffffffffffffff168173ffffffffffffffffffffffffffffffffffffffff1603610efc5760006040517f1e4fbdf7000000000000000000000000000000000000000000000000000000008152600401610ef39190611320565b60405180910390fd5b610f0581610fa1565b50565b610f10610f1a565b8060028190555050565b610f22611065565b73ffffffffffffffffffffffffffffffffffffffff16610f40610a93565b73ffffffffffffffffffffffffffffffffffffffff1614610f9f57610f63611065565b6040517f118cdaa7000000000000000000000000000000000000000000000000000000008152600401610f969190611320565b60405180910390fd5b565b60008060009054906101000a900473ffffffffffffffffffffffffffffffffffffffff169050816000806101000a81548173ffffffffffffffffffffffffffffffffffffffff021916908373ffffffffffffffffffffffffffffffffffffffff1602179055508173ffffffffffffffffffffffffffffffffffffffff168173ffffffffffffffffffffffffffffffffffffffff167f8be0079c531659141344cd1fd0a4f28419497f9722a3daafe3b4186f6b6457e060405160405180910390a35050565b600033905090565b6040518060e00160405280600073ffffffffffffffffffffffffffffffffffffffff1681526020016060815260200160608152602001600060038111156110b7576110b66113cb565b5b81526020016000815260200160008152602001600081525090565b600080fd5b600080fd5b6000819050919050565b6110ef816110dc565b81146110fa57600080fd5b50565b60008135905061110c816110e6565b92915050565b600060208284031215611128576111276110d2565b5b6000611136848285016110fd565b91505092915050565b600073ffffffffffffffffffffffffffffffffffffffff82169050919050565b600061116a8261113f565b9050919050565b61117a8161115f565b811461118557600080fd5b50565b60008135905061119781611171565b92915050565b6000602082840312156111b3576111b26110d2565b5b60006111c184828501611188565b91505092915050565b600080fd5b600080fd5b600080fd5b60008083601f8401126111ef576111ee6111ca565b5b8235905067ffffffffffffffff81111561120c5761120b6111cf565b5b602083019150836001820283011115611228576112276111d4565b5b9250929050565b60008060208385031215611246576112456110d2565b5b600083013567ffffffffffffffff811115611264576112636110d7565b5b611270858286016111d9565b92509250509250929050565b611285816110dc565b82525050565b60006020820190506112a0600083018461127c565b92915050565b60006112b18261113f565b9050919050565b6112c1816112a6565b81146112cc57600080fd5b50565b6000813590506112de816112b8565b92915050565b6000602082840312156112fa576112f96110d2565b5b6000611308848285016112cf565b91505092915050565b61131a816112a6565b82525050565b60006020820190506113356000830184611311565b92915050565b600081519050919050565b600082825260208201905092915050565b60005b8381101561137557808201518184015260208101905061135a565b60008484015250505050565b6000601f19601f8301169050919050565b600061139d8261133b565b6113a78185611346565b93506113b7818560208601611357565b6113c081611381565b840191505092915050565b7f4e487b7100000000000000000000000000000000000000000000000000000000600052602160045260246000fd5b6004811061140b5761140a6113cb565b5b50565b600081905061141c826113fa565b919050565b600061142c8261140e565b9050919050565b61143c81611421565b82525050565b600060e082019050611457600083018a611311565b81810360208301526114698189611392565b9050818103604083015261147d8188611392565b905061148c6060830187611433565b611499608083018661127c565b6114a660a083018561127c565b6114b360c083018461127c565b98975050505050505050565b6000806000604084860312156114d8576114d76110d2565b5b60006114e6868287016110fd565b935050602084013567ffffffffffffffff811115611507576115066110d7565b5b611513868287016111d9565b92509250509250925092565b611528816112a6565b82525050565b600082825260208201905092915050565b600061154a8261133b565b611554818561152e565b9350611564818560208601611357565b61156d81611381565b840191505092915050565b61158181611421565b82525050565b611590816110dc565b82525050565b600060e0830160008301516115ae600086018261151f565b50602083015184820360208601526115c6828261153f565b915050604083015184820360408601526115e0828261153f565b91505060608301516115f56060860182611578565b5060808301516116086080860182611587565b5060a083015161161b60a0860182611587565b5060c083015161162e60c0860182611587565b508091505092915050565b600060208201905081810360008301526116538184611596565b905092915050565b7f4e4f542050454e44494e47000000000000000000000000000000000000000000600082015250565b6000611691600b83611346565b915061169c8261165b565b602082019050919050565b600060208201905081810360008301526116c081611684565b9050919050565b7f4e4f54204f574e45520000000000000000000000000000000000000000000000600082015250565b60006116fd600983611346565b9150611708826116c7565b602082019050919050565b6000602082019050818103600083015261172c816116f0565b9050919050565b7f4e4f542056414c49442055534552000000000000000000000000000000000000600082015250565b6000611769600e83611346565b915061177482611733565b602082019050919050565b600060208201905081810360008301526117988161175c565b9050919050565b7f454d5054592050524f4d50540000000000000000000000000000000000000000600082015250565b60006117d5600c83611346565b91506117e08261179f565b602082019050919050565b60006020820190508181036000830152611804816117c8565b9050919050565b7f46454520544f4f204c4f57000000000000000000000000000000000000000000600082015250565b6000611841600b83611346565b915061184c8261180b565b602082019050919050565b6000602082019050818103600083015261187081611834565b9050919050565b7f4e487b7100000000000000000000000000000000000000000000000000000000600052601160045260246000fd5b60006118b1826110dc565b91507fffffffffffffffffffffffffffffffffffffffffffffffffffffffffffffffff82036118e3576118e2611877565b5b600182019050919050565b7f4e487b7100000000000000000000000000000000000000000000000000000000600052604160045260246000fd5b7f4e487b7100000000000000000000000000000000000000000000000000000000600052602260045260246000fd5b6000600282049050600182168061196457607f821691505b6020821081036119775761197661191d565b5b50919050565b60008190508160005260206000209050919050565b60006020601f8301049050919050565b600082821b905092915050565b6000600883026119df7fffffffffffffffffffffffffffffffffffffffffffffffffffffffffffffffff826119a2565b6119e986836119a2565b95508019841693508086168417925050509392505050565b6000819050919050565b6000611a26611a21611a1c846110dc565b611a01565b6110dc565b9050919050565b6000819050919050565b611a4083611a0b565b611a54611a4c82611a2d565b8484546119af565b825550505050565b600090565b611a69611a5c565b611a74818484611a37565b505050565b5b81811015611a9857611a8d600082611a61565b600181019050611a7a565b5050565b601f821115611add57611aae8161197d565b611ab784611992565b81016020851015611ac6578190505b611ada611ad285611992565b830182611a79565b50505b505050565b600082821c905092915050565b6000611b0060001984600802611ae2565b1980831691505092915050565b6000611b198383611aef565b9150826002028217905092915050565b611b328261133b565b67ffffffffffffffff811115611b4b57611b4a6118ee565b5b611b55825461194c565b611b60828285611a9c565b600060209050601f831160018114611b935760008415611b81578287015190505b611b8b8582611b0d565b865550611bf3565b601f198416611ba18661197d565b60005b82811015611bc957848901518255600182019150602085019450602081019050611ba4565b86831015611be65784890151611be2601f891682611aef565b8355505b6001600288020188555050505b505050505050565b82818337600083830152505050565b6000611c168385611346565b9350611c23838584611bfb565b611c2c83611381565b840190509392505050565b60006020820190508181036000830152611c52818486611c0a565b90509392505050565b7f494e56414c4944204f5241434c45204144445245535300000000000000000000600082015250565b6000611c91601683611346565b9150611c9c82611c5b565b602082019050919050565b60006020820190508181036000830152611cc081611c84565b9050919050565b7f4f4e4c59204f5241434c452043414e2043414c4c000000000000000000000000600082015250565b6000611cfd601483611346565b9150611d0882611cc7565b602082019050919050565b60006020820190508181036000830152611d2c81611cf0565b9050919050565b600082905092915050565b611d488383611d33565b67ffffffffffffffff811115611d6157611d606118ee565b5b611d6b825461194c565b611d76828285611a9c565b6000601f831160018114611da55760008415611d93578287013590505b611d9d8582611b0d565b865550611e05565b601f198416611db38661197d565b60005b82811015611ddb57848901358255600182019150602085019450602081019050611db6565b86831015611df85784890135611df4601f891682611aef565b8355505b6001600288020188555050505b5050505050505056fea2646970667358221220a9f5eb566c7b0d19abeb02fe0ddffb65f4e9aed5a7a5a3cfccb6cc96681ceef464736f6c634300081c0033",
    "linkReferences": {},
    "deployedLinkReferences": {}
}